{
  "contractName": "Factory",
  "abi": [
    {
      "constant": true,
      "inputs": [
        {
          "name": "",
          "type": "uint256"
        }
      ],
      "name": "deployedCampaigns",
      "outputs": [
        {
          "name": "",
          "type": "address"
        }
      ],
      "payable": false,
      "stateMutability": "view",
      "type": "function"
    },
    {
      "constant": false,
      "inputs": [
        {
          "name": "minimum",
          "type": "uint256"
        },
        {
          "name": "fundingAmount",
          "type": "uint256"
        }
      ],
      "name": "createCampaign",
      "outputs": [],
      "payable": false,
      "stateMutability": "nonpayable",
      "type": "function"
    },
    {
      "constant": true,
      "inputs": [],
      "name": "getDeployedCampaigns",
      "outputs": [
        {
          "name": "",
          "type": "address[]"
        }
      ],
      "payable": false,
      "stateMutability": "view",
      "type": "function"
    }
  ],
  "bytecode": "0x6060604052341561000f57600080fd5b6110b08061001e6000396000f30060606040526000357c0100000000000000000000000000000000000000000000000000000000900463ffffffff1680632250226814610053578063339d50a51461007f5780634acb9d4f146100e257600080fd5b341561005e57600080fd5b61007d600480803590602001909190803590602001909190505061014c565b005b341561008a57600080fd5b6100a0600480803590602001909190505061021d565b604051808273ffffffffffffffffffffffffffffffffffffffff1673ffffffffffffffffffffffffffffffffffffffff16815260200191505060405180910390f35b34156100ed57600080fd5b6100f561025c565b6040518080602001828103825283818151815260200191508051906020019060200280838360005b8381101561013857808201518184015260208101905061011d565b505050509050019250505060405180910390f35b60008282336101596102f0565b808481526020018381526020018273ffffffffffffffffffffffffffffffffffffffff1673ffffffffffffffffffffffffffffffffffffffff1681526020019350505050604051809103906000f08015156101b357600080fd5b9050600080548060010182816101c99190610300565b9160005260206000209001600083909190916101000a81548173ffffffffffffffffffffffffffffffffffffffff021916908373ffffffffffffffffffffffffffffffffffffffff16021790555050505050565b60008181548110151561022c57fe5b90600052602060002090016000915054906101000a900473ffffffffffffffffffffffffffffffffffffffff1681565b61026461032c565b60008054806020026020016040519081016040528092919081815260200182805480156102e657602002820191906000526020600020905b8160009054906101000a900473ffffffffffffffffffffffffffffffffffffffff1673ffffffffffffffffffffffffffffffffffffffff168152602001906001019080831161029c575b5050505050905090565b604051610d1f8061036683390190565b815481835581811511610327578183600052602060002091820191016103269190610340565b5b505050565b602060405190810160405280600081525090565b61036291905b8082111561035e576000816000905550600101610346565b5090565b9056006060604052341561000f57600080fd5b604051606080610d1f83398101604052808051906020019091908051906020019091908051906020019091905050806000806101000a81548173ffffffffffffffffffffffffffffffffffffffff021916908373ffffffffffffffffffffffffffffffffffffffff1602179055508260018190555081600281905550505050610c828061009d6000396000f300606060405236156100c3576000357c0100000000000000000000000000000000000000000000000000000000900463ffffffff16806303441006146100c85780630a144391146100eb578063128e9be61461013c5780633410452a146101655780634051ddac1461018e578063481c6a75146101ff57806381d12c58146102545780638a9cfd5514610359578063937e09b1146103de578063af11fd1614610407578063d7bb99ba14610430578063d7d1bbdb1461043a578063eca3ee2c1461045d575b600080fd5b34156100d357600080fd5b6100e96004808035906020019091905050610486565b005b34156100f657600080fd5b610122600480803573ffffffffffffffffffffffffffffffffffffffff169060200190919050506105dc565b604051808215151515815260200191505060405180910390f35b341561014757600080fd5b61014f6105fc565b6040518082815260200191505060405180910390f35b341561017057600080fd5b610178610602565b6040518082815260200191505060405180910390f35b341561019957600080fd5b6101a161060f565b604051808681526020018581526020018481526020018381526020018273ffffffffffffffffffffffffffffffffffffffff1673ffffffffffffffffffffffffffffffffffffffff1681526020019550505050505060405180910390f35b341561020a57600080fd5b61021261066e565b604051808273ffffffffffffffffffffffffffffffffffffffff1673ffffffffffffffffffffffffffffffffffffffff16815260200191505060405180910390f35b341561025f57600080fd5b6102756004808035906020019091905050610693565b60405180806020018681526020018573ffffffffffffffffffffffffffffffffffffffff1673ffffffffffffffffffffffffffffffffffffffff168152602001841515151581526020018381526020018281038252878181546001816001161561010002031660029004815260200191508054600181600116156101000203166002900480156103465780601f1061031b57610100808354040283529160200191610346565b820191906000526020600020905b81548152906001019060200180831161032957829003601f168201915b5050965050505050505060405180910390f35b341561036457600080fd5b6103dc600480803590602001908201803590602001908080601f0160208091040260200160405190810160405280939291908181526020018383808284378201915050505050509190803590602001909190803573ffffffffffffffffffffffffffffffffffffffff16906020019091905050610704565b005b34156103e957600080fd5b6103f1610876565b6040518082815260200191505060405180910390f35b341561041257600080fd5b61041a61087c565b6040518082815260200191505060405180910390f35b610438610882565b005b341561044557600080fd5b61045b600480803590602001909190505061090f565b005b341561046857600080fd5b610470610a55565b6040518082815260200191505060405180910390f35b60008060009054906101000a900473ffffffffffffffffffffffffffffffffffffffff1673ffffffffffffffffffffffffffffffffffffffff163373ffffffffffffffffffffffffffffffffffffffff161415156104e357600080fd5b6006828154811015156104f257fe5b906000526020600020906005020190506002546003541015151561051557600080fd5b600260055481151561052357fe5b04816004015411151561053557600080fd5b8060020160149054906101000a900460ff1615151561055357600080fd5b60018160020160146101000a81548160ff0219169083151502179055508060020160009054906101000a900473ffffffffffffffffffffffffffffffffffffffff1673ffffffffffffffffffffffffffffffffffffffff166108fc82600101549081150290604051600060405180830381858888f1935050505015156105d857600080fd5b5050565b60046020528060005260406000206000915054906101000a900460ff1681565b60055481565b6000600680549050905090565b60008060008060006001543073ffffffffffffffffffffffffffffffffffffffff16316006805490506005546000809054906101000a900473ffffffffffffffffffffffffffffffffffffffff16945094509450945094509091929394565b6000809054906101000a900473ffffffffffffffffffffffffffffffffffffffff1681565b6006818154811015156106a257fe5b906000526020600020906005020160009150905080600001908060010154908060020160009054906101000a900473ffffffffffffffffffffffffffffffffffffffff16908060020160149054906101000a900460ff16908060040154905085565b61070c610a5b565b6000809054906101000a900473ffffffffffffffffffffffffffffffffffffffff1673ffffffffffffffffffffffffffffffffffffffff163373ffffffffffffffffffffffffffffffffffffffff1614151561076757600080fd5b60a0604051908101604052808581526020018481526020018373ffffffffffffffffffffffffffffffffffffffff16815260200160001515815260200160008152509050600680548060010182816107bf9190610aa9565b9160005260206000209060050201600083909190915060008201518160000190805190602001906107f1929190610adb565b506020820151816001015560408201518160020160006101000a81548173ffffffffffffffffffffffffffffffffffffffff021916908373ffffffffffffffffffffffffffffffffffffffff16021790555060608201518160020160146101000a81548160ff0219169083151502179055506080820151816004015550505050505050565b60015481565b60025481565b600154341015151561089357600080fd5b6001600460003373ffffffffffffffffffffffffffffffffffffffff1673ffffffffffffffffffffffffffffffffffffffff16815260200190815260200160002060006101000a81548160ff02191690831515021790555060056000815480929190600101919050555034600360008282540192505081905550565b600060068281548110151561092057fe5b90600052602060002090600502019050600460003373ffffffffffffffffffffffffffffffffffffffff1673ffffffffffffffffffffffffffffffffffffffff16815260200190815260200160002060009054906101000a900460ff16151561098857600080fd5b8060030160003373ffffffffffffffffffffffffffffffffffffffff1673ffffffffffffffffffffffffffffffffffffffff16815260200190815260200160002060009054906101000a900460ff161515156109e357600080fd5b60018160030160003373ffffffffffffffffffffffffffffffffffffffff1673ffffffffffffffffffffffffffffffffffffffff16815260200190815260200160002060006101000a81548160ff02191690831515021790555080600401600081548092919060010191905055505050565b60035481565b60a060405190810160405280610a6f610b5b565b815260200160008152602001600073ffffffffffffffffffffffffffffffffffffffff168152602001600015158152602001600081525090565b815481835581811511610ad657600502816005028360005260206000209182019101610ad59190610b6f565b5b505050565b828054600181600116156101000203166002900490600052602060002090601f016020900481019282601f10610b1c57805160ff1916838001178555610b4a565b82800160010185558215610b4a579182015b82811115610b49578251825591602001919060010190610b2e565b5b509050610b579190610be9565b5090565b602060405190810160405280600081525090565b610be691905b80821115610be25760008082016000610b8e9190610c0e565b60018201600090556002820160006101000a81549073ffffffffffffffffffffffffffffffffffffffff02191690556002820160146101000a81549060ff0219169055600482016000905550600501610b75565b5090565b90565b610c0b91905b80821115610c07576000816000905550600101610bef565b5090565b90565b50805460018160011615610100020316600290046000825580601f10610c345750610c53565b601f016020900490600052602060002090810190610c529190610be9565b5b505600a165627a7a72305820cffe0994ecf52b2bae5394b668000a69c5e527838cb7004de2fc6d20e761742e0029a165627a7a72305820c24e3fcf9ae2a6f590c318ad9b5333bed42bfea5975025ce6d3e3d4d5f8550150029",
  "source": "pragma solidity ^0.4.17;\r\n\r\ncontract Factory {\r\n    address[] public deployedCampaigns;\r\n\r\n    function createCampaign(uint minimum, uint fundingAmount) public {\r\n        address newCampaign = new Campaign(minimum, fundingAmount, msg.sender);\r\n        deployedCampaigns.push(newCampaign);\r\n    }\r\n\r\n    function getDeployedCampaigns() public view returns(address[]) {\r\n        return deployedCampaigns;\r\n    }\r\n}\r\n\r\ncontract Campaign {\r\n    struct Request {\r\n        string description;\r\n        uint value;\r\n        address recipient;\r\n        bool complete;\r\n        mapping(address=>bool) approvals;\r\n        uint approvalCount;\r\n    }\r\n\r\n    address public manager;\r\n    uint public minimumContribution;\r\n    uint public proposedFundingAmount;\r\n    uint public currentFundingAmount;\r\n    mapping(address=>bool) public approvers;\r\n    uint public approverCount;\r\n    Request[] public requests;\r\n\r\n    modifier onlyManager() {\r\n        require(msg.sender == manager);\r\n        _;\r\n    }\r\n\r\n    function Campaign(uint minimum, uint fundingAmount, address creator) public {\r\n        manager = creator;\r\n        minimumContribution = minimum;\r\n        proposedFundingAmount = fundingAmount;\r\n    }\r\n\r\n    function contribute() public payable {\r\n        require(msg.value >= minimumContribution);\r\n        approvers[msg.sender] = true;\r\n        approverCount++;\r\n        currentFundingAmount += msg.value;\r\n    }\r\n\r\n    function createRequest(string description, \r\n                           uint value, \r\n                           address recipient) public onlyManager {\r\n        Request memory newRequest = Request({\r\n                        description   : description, \r\n                        value         : value, \r\n                        recipient     : recipient,\r\n                        complete      : false,\r\n                        approvalCount : 0\r\n                        });\r\n\r\n        // alternative instance creation\r\n        // Request(description, value, recipient, false);\r\n        \r\n        // memory -> create a new copy\r\n        // storage -> use an existing variable\r\n\r\n        requests.push(newRequest);\r\n    }\r\n\r\n    function approveRequest(uint requestIdx) public {\r\n        Request storage currentRequest = requests[requestIdx];\r\n        \r\n        require(approvers[msg.sender]);\r\n        require(!currentRequest.approvals[msg.sender]);\r\n\r\n        currentRequest.approvals[msg.sender] = true;\r\n        currentRequest.approvalCount++;\r\n    }\r\n\r\n    function finalizeRequest(uint requestIdx) public onlyManager {\r\n        Request storage currentRequest = requests[requestIdx];\r\n        \r\n        require(currentFundingAmount >= proposedFundingAmount);\r\n        require(currentRequest.approvalCount > (approverCount/2));\r\n        require(!currentRequest.complete);\r\n\r\n        currentRequest.complete = true;\r\n        currentRequest.recipient.transfer(currentRequest.value);\r\n    }\r\n\r\n    function getSummary() public view returns (uint, uint, uint, uint, address) {\r\n        return (\r\n            minimumContribution,\r\n            this.balance,\r\n            requests.length,\r\n            approverCount,\r\n            manager\r\n        );\r\n    }\r\n\r\n    function getRequestsCount() public view returns (uint) {\r\n        return requests.length;\r\n    }\r\n\r\n}",
  "sourcePath": "/mnt/c/Users/Minh/OneDrive/Desktop/kickstart/contracts/Campaign.sol",
  "compiler": {
    "name": "solc",
    "version": "0.4.17+commit.bdeb9e52.Emscripten.clang"
  },
  "schemaVersion": "3.4.3",
  "updatedAt": "2021-12-11T07:49:09.410Z",
  "networkType": "ethereum",
  "devdoc": {
    "methods": {}
  },
  "userdoc": {
    "methods": {}
  }
}